:020000040000fa
:080000000001040000000000f3
:020000040000fa
:100200002f85200080ff20000001880000000000f2
:10021000050007000c000700ba04020000000000ff
:100220000040da000000fe004440a9000000200069
:100230000000e0000300320000002000a001880060
:100240004440a80000000600607920000100200062
:100250001600370062004000e080480091018800ed
:100260009001ba0062004000e080480091018800df
:100270009002ba0062004000e08048000002eb00fb
:100280006028e10005003a008301e900070033001f
:10029000038009000059eb00040037006128e100e9
:1002a000010032000082eb00050007009101880088
:1002b0001001ba000200e000e6ff3a00000005006d
:1002c000910188008002780062004000e0804800d0
:1002d0003559ba008301e900080032002559ba00f7
:1002e0008301e900050032000400e000f4ff320061
:1002f00015d9ba008301e900f1ff3a0000000600b9
:100300009623ef008760a900c01c8800e7c1600049
:10031000c419dd00a1c0bf00f2c8b30002406000f4
:1003200003407000a1e0b700e8806000c308de0071
:10033000c308dd008fc0bf000034a1000140700081
:100340008fe0b70000000600801c88000000060057
:10035000901c8800a11c880000000600401ade00e6
:100360000500200004037800e24f50001300320023
:1003700005003c000004e00009003200e14f50009d
:100380001e003a0009003700e44f5000130032000d
:100390000e003500e54f500018003a0013003700fa
:1003a00001188800141888001600370041188800ca
:1003b0005418880062188800000006008118880020
:1003c00094188800a218880000000600c118880050
:1003d000d4188800e218880000000600011988007f
:1003e00014198800221988000000060041198800ad
:1003f000541988006219880000000600011888005e
:10040000161888002218880000000600401ade0036
:10041000050020000004e00006003200e14f50001b
:1004200004003a00c1198800d4198800e219880034
:10043000000006008119880094198800a21988001c
:1004400000000600e14f500003003200e24f500070
:100450000300320004003700f11a88000000060093
:10046000711a880000000600711b88000000060059
:100470000004e00004003200e14f500002003a00a6
:10048000f11b880000000600711c880000000600b7
:10049000401bde0007002000e1cf520003003200c5
:1004a000e2cf52000500320008003700801a8800b1
:1004b000961a8800a21a880007003700001a8800e0
:1004c000161a8800221a880003003700001b8800d3
:1004d000161b8800221b88000001eb000a00370071
:1004e00060352000e1cf5200040032006036200069
:1004f000e2cf520001003a00603420001170790010
:100500000201e8008100e8000480fb00800f510038
:10051000f3ff3500e1cf52000d003200e2cf520070
:10052000160032006f4062004300dd0041362000bb
:100530009140780072c8b30082c0600080c0700033
:100540000100780064e3b7006e63a80000000600b5
:100550006f4062004300dd0041352000914078008b
:1005600072c8b30082c0600080c0700001007800d3
:1005700054e3b7005e63a800000006006f4062000d
:100580004300dd00413420009140780072c8b30080
:1005900082c0600080c070000100780044e3b700b2
:1005a0004e63a80000000600e14f50000700320033
:1005b000e24f5000070032008000eb000004e00032
:1005c00009003a006ec3bf00030037005ec3bf00de
:1005d000010037004ec3bf000080fb004300de0077
:1005e0000000a200e10060000100780000000600a9
:1005f0000004e000040032008000eb00e14f5000f6
:1006000006003a00020037008ec3bf000100370029
:100610007ec3bf000080fb00c700de000100780041
:10062000000006000002eb0080017800090037009e
:100630000204e0000300320060372000e14f510067
:100640000100320060382000e0497a000402e8002e
:100650008301e8000180fb00800f5200f4ff3500a9
:100660000000060017e2a9008f00a9008f20a90052
:100670008700a9008720a900000006008700a900c4
:100680008720a900e7416000010a2000914078001e
:1006900082cfb30082c0600083c070008000fd0084
:1006a000a0e0b7008000fd0001c7b30081416000f9
:1006b000010a200091407800f2c8b30082c06000b7
:1006c00083c070008000fd00a0e0b7008000fd0046
:1006d000680160004311de00f108200091407800bd
:1006e0000104a10082c070008000fd008fe0b7000f
:1006f0008000fd000008b2004700de00004040001e
:10070000f1082000914078000114a10080c0700021
:10071000010078008fe0b70000000600f2108800aa
:10072000b0108800c110880000000600889fbe003d
:100730008a9fbe008c1f7800800478000105780035
:100740000206780081057800100037008c0f5400f5
:10075000120031000804e800150007000004e00062
:10076000faff320016c2bf0066406000e64f50003c
:1007700003003a00e0108000001d780002003700fe
:10078000e0108000805d78008904e9000900e00045
:10079000020032000004eb00efff37000900780090
:1007a0004f0678004f05be004f04be000000060053
:1007b00018c2bf00610060000000060019c2bf003f
:1007c0000004a200610060000000060080007800c4
:1007d00016c2bf0066406000e64f500001003200c4
:1007e000f10fb200d1108800000006001421ef00c4
:1007f000d1088800f00888001e61a90000000600ea
:1008000086a0a900e7416000c419dd00e1092000cd
:1008100091407800f2c8b30082c0600083c07000cd
:100820008000fd009ee0b7008000fd0068006000d1
:100830004300de004500dd00e10820009140780023
:100840000154a10080c07000010078008ee0b70064
:10085000000006000000fa000b000700ca42a800d2
:1008600047000700ca42a900ca42a800f9000700d1
:10087000ca42a900ca42a800ca42a900ca22a800c6
:100880000080fa00000006000000fa00c642a9003d
:10089000ca42a900c622a900ca42a9000080fa00e3
:1008a000000006000600fa00200798000000eb0098
:1008b000100798000a0037000000eb00000f7800d6
:1008c000010037001e0fe800301f20009e0f1000af
:1008d000fcff36001e0090000000e80010079800a2
:1008e0009e0090002e009000808f5000f2ff390093
:1008f0000080fa00000006000000fa00ca22a800ea
:10090000ca42a900803e2000e6ff0700ca22a900d3
:10091000ca42a800803e2000e2ff0700f7ff370030
:100920000600fa00200798000000eb00100798006e
:100930000a0037000000eb00000f780001003700cc
:100940001e0fe800f0f920009e0f1000fcff36009b
:100950001e0090000000e800100798009e00900024
:100960002e009000808f5000f2ff39000080fa00c6
:10097000000006000000fa00b6ff0700ffff370086
:100980000000fa00b1ff2f00000220005cfe07000b
:1009900000c020006cfe0700013920009140780063
:1009a00000ceb30080c0600000c8b30080cf50000c
:1009b000f9ff3a00210920000000eb0064fe070067
:1009c0006011b8008000eb000040eb0063fe070000
:1009d0006011b8008000eb0010c0b3005ffe07009c
:1009e0006011b800d1ff21000040eb0087fe070036
:1009f0006011b800c17f210020c0b30057fe07007e
:100a00006011b8008000eb0030c0b30053fe070057
:100a10006011b8008000eb0040c0b3004ffe07003b
:100a20006011b8008000eb0050c0b3004bfe07001f
:100a30006011b800d183200010c0b30073fe07001e
:100a4000310020000040eb007efe07002100200066
:100a500010c0b3007bfe07008000eb0020c0b30095
:100a600078fe07008000eb000040eb0080fe0700ee
:100a70004100200010c0b3007dfe07000080200070
:100a800031fe070090c3bf0001ceb30001406000fb
:100a90000004e000fbff3a000080fa0000000600be
:100aa0000600fa00008fbe00220798002e0090007a
:100ab000ef006000003f2000008170000e00780011
:100ac0008041eb0041c0b3000700070096c3bf00a0
:100ad000644060000004e000010032009643a90079
:100ae0000080fa00000006000800fa00000f7800fd
:100af000214798002207980063479800ae009000b5
:100b0000007c2000008060004501dd00ae00900008
:100b1000f0032000008060004200dd000000710052
:100b2000800078003100b300c08f2f00008060008b
:100b3000ee4290002e4290009e007800821f20001e
:100b40000300200052fe07006e40900096fe070052
:100b50000004e000fcff32000080fa000000060004
:100b60000800fa0020079800310798002e00900036
:100b7000ef006000005f2000008170006600470009
:100b800013c0b30021c0b300d7ff070096c3bf0056
:100b9000684060000004e000010032009663a90094
:100ba00010c0b30092fe07000004e000fcff32001a
:100bb0000e00780012c0b30041c0b30099fe0700d8
:100bc0007ee3a9001e00be000080fa0000000600bf
:100bd0003600f800809fbe00829fbe00849fbe004a
:100be000869fbe000000fa00ca42a80096c3bf005c
:100bf0000042b2000004e0000d00320097c3bf00c5
:100c000001c8b300014060000004e00001003200b0
:100c100097e3a90097c3bf000044b2000004e000be
:100c20000100320097c3a90096a3a90032ff070074
:100c3000ca42a9008760a9000080fa004f03be00e5
:100c40004f02be004f01be004f00be003600f9004b
:100c5000004006000000fa0082fe070090f02f001e
:100c600086fe070052012000d17d2f0000ba2d0022
:100c7000aafe070040802000020007000080fa0062
:100c8000000006000200fa00000f78009e007800c5
:100c900010c0b300804878009e0078000000eb0090
:100ca000a00098009e0078000000eb0090009800e3
:100cb0000080fa00000006003600f800809fbe00a9
:100cc000829fbe00849fbe00869fbe000000fa0087
:100cd0008700a900ca42a800300037000180200028
:100ce000820220004000200090fe070004c8bf00e0
:100cf0000004e000070032000040eb0004e8b70009
:100d000000408000304088000000eb004040880038
:100d10002200370040408000c200dd00a08020009b
:100d20000080400002408000134080000288be0026
:100d30004340800040408000320020001100090044
:100d40000280d800c200dd00404080003200200058
:100d5000811f7800110009000280d800000178008e
:100d600001007800cf00780000817000838041008e
:100d7000a0832000008040000208780040408000ee
:100d80000000e80040408800414080003040800082
:100d9000808f500001003a000b00070084fe07001e
:100da0000004e000cdff3a00ca42a9000080fa002a
:100db0004f03be004f02be004f01be004f00be00f9
:100dc0003600f900004006000200fa000000eb00c7
:100dd000000f78000f0037001e0078000000400070
:100de000610320008080400040802000008040009f
:100df000100178001e0078004200dd00e60040008f
:100e000040802000008040001000be0024ff07004a
:100e10001e0fe800304080009e0f5000eeff3e00a5
:100e20004080200097ff07000080fa0000000600c5
:100e30000a00fa0030079800410798005ffe07009b
:100e40000004e000fdff3a00400020005ffe0700c4
:100e50005afe07000004e000fdff3a003e0090004b
:100e6000ce00900010079800210798000000eb00ca
:100e7000000f7800070037001e0078000e004000c9
:100e80000080e800104078000000fb004ffe0700e3
:100e90001e0fe800310020009e8f1000f6ff360084
:100ea00046fe07000004e000fdff3a000080fa0063
:100eb000000006000000fa0051c32000d0fa2d0007
:100ec0004afe0700a0ff2f004dfe07000080fa0039
:100ed000000006003600f800809fbe00829fbe0022
:100ee000849fbe00869fbe000400fa00ca42a8008c
:100ef000410620000000eb0019ff0700008fbe0034
:100f00001e00be00caff0700ca42a90086a0a900b1
:100f10000080fa004f03be004f02be004f01be002a
:0c0f20004f00be003600f9000040060043
:020000040000fa
:0200000401f009
:04000000f6ff000007
:020000040000fa
:0200000401f009
:04000400ff7f00007a
:020000040000fa
:100008009e0700009e0700009e0700009e07000054
:100018009e0700009e0700009e0700009e07000044
:100028009e0700009e0700009e0700009e07000034
:100038009e0700009e0700009e0700009e07000024
:100048009e0700009e0700009e0700009e07000014
:100058009e0700009e0700009e0700009e07000004
:100068009e0700009e0700009e0700009e070000f4
:100078009e0700006a0700009e0700009e07000018
:100088005c0600009e0700009e070000e8050000cf
:100098009e0700009e0700009e0700009e070000c4
:1000a8009e0700009e0700009e0700009e070000b4
:1000b8009e0700009e0700009e0700009e070000a4
:1000c8009e0700009e0700009e0700009e07000094
:1000d8009e0700009e0700009e0700009e07000084
:1000e8009e0700009e0700009e0700009e07000074
:0800f8009e0700009e070000b6
:020000040000fa
:100108009e0700009e0700009e0700009e07000053
:100118009e0700009e0700009e0700009e07000043
:100128009e0700009e0700009e0700009e07000033
:100138009e0700009e0700009e0700009e07000023
:100148009e0700009e0700009e0700009e07000013
:100158009e0700009e0700009e0700009e07000003
:100168009e0700009e0700009e0700009e070000f3
:100178009e0700006a0700009e0700009e07000017
:100188005c0600009e0700009e070000e8050000ce
:100198009e0700009e0700009e0700009e070000c3
:1001a8009e0700009e0700009e0700009e070000b3
:1001b8009e0700009e0700009e0700009e070000a3
:1001c8009e0700009e0700009e0700009e07000093
:1001d8009e0700009e0700009e0700009e07000083
:1001e8009e0700009e0700009e0700009e07000073
:0801f8009e0700009e070000b5
:020000040000fa
:100f2c00000800005200000000000000000000005b
:020000040000fa
:040f3c000000fe00b3
:00000001FF
