:020000040000fa
:080000000001040000000000f3
:020000040000fa
:10020000ef81200080ff2000000188000000000036
:10021000050007000c0007009c060200000000001b
:100220000040da000000fe004440a9000000200069
:100230000000e0000300320000002000a001880060
:100240004440a80000000600209e2000010020007d
:100250001600370062004000e080480091018800ed
:100260009001ba0062004000e080480091018800df
:100270009002ba0062004000e08048000002eb00fb
:100280006028e10005003a008301e900070033001f
:10029000038009000059eb00040037006128e100e9
:1002a000010032000082eb00050007009101880088
:1002b0001001ba000200e000e6ff3a00000005006d
:1002c000910188008002780062004000e0804800d0
:1002d0003559ba008301e900080032002559ba00f7
:1002e0008301e900050032000400e000f4ff320061
:1002f00015d9ba008301e900f1ff3a0000000600b9
:1003000003f0a200889fbe008a9fbe008c1f780069
:1003100019010700200133006450e1004f00320052
:100320006420e1005200320003826c0007003b00b1
:100330000905d0000306d000820f54000c065d00b2
:1003400002003900020032008901780003067800bb
:100350008582550004003d000003fd008103fd007f
:100360008502ea008b854200840f720002003b0088
:1003700060001000e08018006011b8000005eb007c
:100380007a28e1000a00390006007800c75ddd0028
:10039000f707b200878075002d0037008281710059
:1003a0000a017800610560008180d1000080d300df
:1003b0008502e900f9ff3b000604400087844800fd
:1003c00002003b0060041400e0841c000988a300c4
:1003d000070032008a81710082817100610164002e
:1003e0008904d1000884d3008b05e800170037008a
:1003f0000978a30013003a000b00e000130034005a
:100400008b05e9000804440089844c000a44740008
:100410000978a3000d003a000b00e000070034004b
:100420008b05e9000804440089844c0001003a006f
:100430000b0020000978a300f7ff32000001eb0059
:1004400002003700828171000a017800e200070093
:100450000cf0a70001f0a000d80037006420e100f4
:1004600002003a00838f6c00d80033000801be0000
:100470000200be00d1003700889fbe008a9fbe00e8
:100480008c1f7800bc000700c300330003866c009b
:100490006450e100240032006420e10027003200b3
:1004a0006150e100220032006120e10021003200b1
:1004b0008b854200eb07b1000134b800003ab80068
:1004c0000804420089844a00013ab8000030b800ac
:1004d0008880400009014a00040033000000400009
:1004e00081804800020149008b05e900c909dd004f
:1004f000830170000100320013002000c814de00e8
:100500004814dd004709de001200b200c808de0012
:1005100008847000b000070001f0a1000cf0a700f3
:1005200001f0a000a50037006120e100a700320023
:100530000801be000200be00f7ff37006150e10075
:10054000fcff3a00a1003700f4ff2f00c80037007d
:1005500014002000c6003700889fbe008a9fbe009e
:100560008c1f7800840007008b00330003866c002a
:100570006450e1002e0032006420e10033003200bc
:100580006150e1002f0032006120e10031003200b3
:1005900085855500eb07b000090020000804200005
:1005a000050037000804440089844c000a0031002b
:1005b0000603430087834b000001530081815b00e9
:1005c000f8ff33000203be000800a0000804440046
:1005d00089844c00f6ff3900c639dd0083017300c1
:1005e00001003200130020008904d1000884d300e8
:1005f0000998a300050032000800a7000300a0002e
:100600008904d1000884d3008b05e8008904d10057
:100610000884d3000001eb000281d2006e000700c5
:1006200001f0a1000cf0a70001f0a000630037006a
:100630006420e100650032000801be000200be0037
:10064000f7ff37006120e100600032006000b80071
:10065000f3ff37000000200001f82700f0ff37000b
:100660000001be009d0007000470a70003f0a10078
:1006700003f8a30013003a006509b100100032002e
:10068000090035006928e10002003500010028005a
:100690000000050000004000818048008502e9005c
:1006a000fcff3a0000000600f88f4200050035000c
:1006b0008100d1000080d3008502e800fcff3a00f1
:1006c000000006008000eb0000000500889fbe00cf
:1006d0008a9fbe00010578000100e000040035009b
:1006e00008003c000000e000200032000500370058
:1006f00060001000e080180002003b0001f02c00b8
:100700001a0037000004be006011b8006b09200019
:100710000982cf00020039000882cf000441b000f6
:10072000694252000e00320008003b0082817100d5
:10073000610164008904d1000884d3008b05e800be
:100740000442e800f9ff3a000500370008044400bd
:1007500089844c008b05e9000442e900fbff3a0064
:100760001d0007000af0a70001f0a0004f05be0021
:100770004f04be00000006000004be005700070042
:100780000003be000405be000200be0053000700c7
:10079000844f7500000006000200be006450e100b6
:1007a000050036006420e100020036000968a3005d
:1007b00001003a000800be000160a0004f0678006a
:1007c0004f05be004f04be0000000600f0ff2f00e2
:1007d000f1ff2700f9ff37008100200061805500fc
:1007e0000b003d000b00200061fe2f000100e10026
:1007f0001d00340082817100610164008904d10010
:100800000884d3000000e800faff3a0071002000dd
:100810006100640003007000020060000900320003
:1008200061044400e0844c000988a5000500320002
:100830008b05e8006808e10002003a008904d10055
:100840000884d300f20f20000258e10005003d00ab
:10085000c75ddd00f907b2008980750008007800e7
:10086000000006000bf827008b0078000000050050
:10087000889fbe008a9fbe00841f7800beff0700cd
:100880004f00780011003300f0ff2f00838f6c00c1
:1008900006003b00040565000a00a70008003700b9
:1008a00009f0a6001000200008003700820f540055
:1008b000838f5c00030039001000200001003e001f
:1008c0000000200009f0a7000000ea004f05be006c
:1008d0004f04be000000e00000000600c70ade0072
:1008e000f107b200f50fb20008003200e1cf42007c
:1008f000020032000170a00024000500810f70008a
:10090000010032000408050044000500810f70005a
:1009100002003a00140005008502e90000004000d2
:1009200081c04800fcff3b000170a00024000500ce
:100930009623ef008760a900c01c8800e7c1600013
:10094000c419dd00a1c0bf00f2c8b30002406000be
:1009500003407000a1e0b700e8806000c308de003b
:10096000c308dd008fc0bf000034a100014070004b
:100970008fe0b70000000600801c88000000060021
:10098000901c8800a11c880000000600401ade00b0
:100990000500200004037800e24f500013003200ed
:1009a00005003c000004e00009003200e14f500067
:1009b0001e003a0009003700e44f500013003200d7
:1009c0000e003500e54f500018003a0013003700c4
:1009d0000118880014188800160037004118880094
:1009e00054188800621888000000060081188800ea
:1009f00094188800a218880000000600c11888001a
:100a0000d4188800e2188800000006000119880048
:100a10001419880022198800000006004119880076
:100a20005419880062198800000006000118880027
:100a3000161888002218880000000600401ade0000
:100a4000050020000004e00006003200e14f5000e5
:100a500004003a00c1198800d4198800e2198800fe
:100a6000000006008119880094198800a2198800e6
:100a700000000600e14f500003003200e24f50003a
:100a80000300320004003700f11a8800000006005d
:100a9000711a880000000600711b88000000060023
:100aa0000004e00004003200e14f500002003a0070
:100ab000f11b880000000600711c88000000060081
:100ac0000002eb0080017800090037000204e0001a
:100ad0000300320060372000e14f51000100320076
:100ae00060382000e0497a000402e8008301e80051
:100af0000180fb00800f5200f4ff3500000006006b
:100b0000401bde0007002000e1cf5200030032004e
:100b1000e2cf52000500320008003700801a88003a
:100b2000961a8800a21a880007003700001a880069
:100b3000161a8800221a880003003700001b88005c
:100b4000161b8800221b88000001eb000a003700fa
:100b500060352000e1cf52000400320060362000f2
:100b6000e2cf520001003a00603420001170790099
:100b70000201e8008100e8000480fb00800f5100c2
:100b8000f3ff3500e1cf52000d003200e2cf5200fa
:100b9000160032006f4062004300dd004136200045
:100ba0009140780072c8b30082c0600080c07000bd
:100bb0000100780064e3b7006e63a800000006003f
:100bc0006f4062004300dd00413520009140780015
:100bd00072c8b30082c0600080c07000010078005d
:100be00054e3b7005e63a800000006006f40620097
:100bf0004300dd00413420009140780072c8b3000a
:100c000082c0600080c070000100780044e3b7003b
:100c10004e63a80000000600e14f500007003200bc
:100c2000e24f5000070032008000eb000004e000bb
:100c300009003a006ec3bf00030037005ec3bf0067
:100c4000010037004ec3bf000080fb004300de0000
:100c50000000a200e1006000010078000000060032
:100c6000200e8800310e8800430e8800540e880044
:100c7000020e8800000006008900a900e74160001c
:100c8000810a20009140780082cfb30082c06000ca
:100c900083c070008000fd00a8e0b7008000fd0068
:100ca000680060004300de001109200091407800d8
:100cb0000104a10080c070000100780091e0b7003d
:100cc0000000060023e1a900f2ff220002016000fb
:100cd000120988004b00de00614060004300dd0027
:100ce00032122000124178000234a100004171004c
:100cf0000200780023e1b700210988000000060007
:100d000061416100a31c2000934178000304a1000d
:100d100082c171008001fd00cae1b7008001fd00c1
:100d200000004000421d2000013079000000060054
:100d300030098000000006000000fa007001070082
:100d4000f3000700feff37000000fa00b1ff2f009c
:100d500030022000f6fe070000c0200006ff07005a
:100d6000013920009140780000ceb30080c06000bf
:100d700000c8b30080cf5000f9ff3a0001292000dd
:100d80000000eb00fefe07006011b80001ff20002c
:100d90000040eb00fdfe07006011b8008000eb0092
:100da00010c0b300f9fe07006011b800d1032100a4
:100db0000040eb0021ff07006011b800017c21001a
:100dc00020c0b300f1fe07006011b8008000eb0006
:100dd00030c0b300edfe07006011b8008000eb00ea
:100de00040c0b300e9fe07006011b8008000eb00ce
:100df00050c0b300e5fe07006011b800118020006c
:100e000010c0b3000dff0700310020000040eb00d0
:100e100018ff07002100200010c0b30015ff0700d5
:100e20008000eb0020c0b30012ff07008000eb0041
:100e30000040eb001aff07004100200010c0b30083
:100e400017ff070000802000cbfe070090c3bf0003
:100e500001ceb300014060000004e000fbff3a0057
:100e60000080fa00000006003600f800809fbe00f7
:100e7000829fbe00849fbe00869fbe000c00fa00c9
:100e8000ca42a80096c3bf000042b2000004e000be
:100e90000d00320097c3bf0001c8b30001406000dd
:100ea0000004e0000100320097e3a90097c3bf00ef
:100eb0000044b2000004e0000100320097c3a90022
:100ec00096a3a9001901070096c3bf006140600006
:100ed0000004e000140032009603a9008ec3bf0096
:100ee000614060000004e00009003a000e80e80064
:100ef0000041eb0041c0b300f1fe07008ee3a90002
:100f00001e009000ae009000f60007003e00370083
:100f10008ec3bf00614060000004e0003a00320070
:100f20008ee3a9003800370096c3bf00624060001e
:100f30000004e000340032009623a9007ec3bf0005
:100f400067406000e24f50002f003a000000eb00c5
:100f5000300798006600470012c0b30021c0b300fc
:100f6000d7fe07007ee3a9000040eb00004f7800a9
:100f70006000b8004007980051079800be0090003c
:100f800040062000808f500001003200060037002c
:100f900010c0b300004f7800b10007004007980070
:100fa00051079800050037000040eb00004f780023
:100fb0006000b800400798005107980010c0b300c7
:100fc0009e4f100010003a00e800470015c0b30023
:100fd00044c0b300823f200003002000c08f2b00dc
:100fe000c7fe070010c0b3000bff07000004e000bd
:100ff000fcff320096c3bf00684060000004e000c0
:10100000010032009663a900ca42a9008760a900c6
:101010000080fa004f03be004f02be004f01be0029
:101020004f00be003600f900004006000000fa0044
:101030000400070010000700dc62a8000080fa002e
:10104000000006000000fa00d862a900dc62a900d6
:10105000d882a900dc82a80024f0200093fd2000a3
:10106000020f2a008000eb0000322000fcfe070087
:101070000080fa00000006000000fa00a862a80044
:10108000a882a800a8a2a8000000280030098800b3
:101090000080eb004009880090ff2f00f6fe07005b
:1010a0008000eb0080d12d0006ff07000080fa00d1
:1010b00000000600801f78000000fa0023c1bf0076
:1010c000684060000004e00004003200004080003e
:1010d0000000e800004088000700370023c1bf007f
:1010e000684060000004e00003003a000040800017
:1010f0000000e90000408800000028003009880056
:101100008900a9000080fa004f0078000040060026
:101110000c00fa005200070030408800414088006f
:101120001040800021408000324080004340800019
:1011300073fc0700b0408800c14088007040800008
:1011400081408000b2408000c3408000cafc07009c
:101150004007980051079800b0408000c1408000cf
:10116000524080006340800065fc07009240800090
:10117000a3408000c0fc07002007980031079800ba
:101180002e019000be0190004e009000de00900005
:101190005bfc0700008fbe006011b8001e00be009f
:1011a000e9fc07000000e00001003d0002003700fc
:1011b000dc82a8000a0037006011b8001e00be00e3
:1011c000e3fc07000000e0000100350004003700e8
:1011d0001e00be0001f0a200008fbe00dc82a9004c
:1011e0001e00be00090007001e00be00d04088009f
:1011f000e1408800b0408000c1408000504088003d
:10120000614088000080fa00000006000600fa0035
:101210001007980021079800020020008344240052
:101220001e009000ae00900093fc0700020020001a
:10123000832c2400c8fc070009fd0700000f78007c
:101240001e00780000004000800078000041eb00a4
:1012500030002000aafe07000080fa00000006000f
:101260001000fa00b2fe070080007800000028009d
:1012700000806800cf80de0014fd07006007980042
:101280007107980000408000cf80de000ffd07004e
:1012900002e02f00f36f240077fc0700400798005e
:1012a000510798004e019000de0190006e00900002
:1012b000fe00900013fc07002007980031079800fb
:1012c0002e009000be00900092e32800333a2400e4
:1012d000a1fc0700008fbe001e00be000080fa00c7
:1012e000000006000400fa00008fbe001e00be00d1
:1012f00010408800214088000080fa0000000600ad
:101300000000fa0028000700ca42a80047ff0700b3
:10131000ca42a900ca42a8008bfe0700ca42a9001f
:10132000ca22a8000080fa00000006000000fa00af
:10133000ca22a800ca42a900803e2000050007007a
:10134000ca22a900ca42a800803e2000010007006e
:10135000f7ff37000600fa00200798000000eb00b6
:10136000100798000a0037000000eb00000f78001b
:10137000010037001e0fe800301f20009e0f1000f4
:10138000fcff36001e0090000000e80010079800e7
:101390009e0090002e009000808f5000f2ff3900d8
:1013a0000080fa00000006000000fa00c642a90012
:1013b000ca42a900c622a900ca42a9000080fa00b8
:0413c0000000060023
:020000040000fa
:0200000401f009
:04000000f6ff000007
:020000040000fa
:0200000401f009
:04000400ff7f00007a
:020000040000fa
:10000800000a0000000a0000000a0000000a0000c0
:10001800000a0000000a0000000a0000000a0000b0
:10002800000a0000000a0000000a0000000a0000a0
:10003800000a0000000a0000000a0000000a000090
:10004800000a0000000a0000000a0000000a000080
:10005800000a0000000a0000000a0000000a000070
:10006800000a0000000a0000000a0000000a000060
:10007800000a0000000a0000000a0000000a000050
:10008800000a0000000a0000000a0000340700000f
:10009800000a0000000a0000000a0000000a000030
:1000a800000a0000000a0000000a0000000a000020
:1000b800000a0000000a0000000a0000000a000010
:1000c8005a080000000a0000000a0000000a0000a8
:1000d800000a0000000a0000000a0000000a0000f0
:1000e800000a0000000a0000000a0000000a0000e0
:0800f800000a0000000a0000ec
:020000040000fa
:10010800000a0000000a0000000a0000000a0000bf
:10011800000a0000000a0000000a0000000a0000af
:10012800000a0000000a0000000a0000000a00009f
:10013800000a0000000a0000000a0000000a00008f
:10014800000a0000000a0000000a0000000a00007f
:10015800000a0000000a0000000a0000000a00006f
:10016800000a0000000a0000000a0000000a00005f
:10017800000a0000000a0000000a0000000a00004f
:10018800000a0000000a0000000a0000340700000e
:10019800000a0000000a0000000a0000000a00002f
:1001a800000a0000000a0000000a0000000a00001f
:1001b800000a0000000a0000000a0000000a00000f
:1001c8005a080000000a0000000a0000000a0000a7
:1001d800000a0000000a0000000a0000000a0000ef
:1001e800000a0000000a0000000a0000000a0000df
:0801f800000a0000000a0000eb
:020000040000fa
:1013c40000080000160000000200000000000000f9
:1013d4000000000000000000000000000000000009
:1013e40000803f000000000000000000160800001c
:0c13f400080000000000000000000000e5
:020000040000fa
:041400000000fe00ea
:00000001FF
